:100000000C94EC000C9414010C9414010C94140145
:100010000C9414010C9414010C9414010C9414010C
:100020000C9414010C9414010C94DF060C947105CB
:100030000C9414010C9414010C9414010C941401EC
:100040000C9414010C9414010C9414010C941401DC
:100050000C9414010C9414010C9414010C9474016C
:100060000C9414010C9414010C9414010C941401BC
:100070000C9414010C9414010C9414010C941401AC
:100080000C9414010C9414010C9414010C9414019C
:100090000C9414010C9414010C9414010C9414018C
:1000A0000C9414010C9414010C94140177027A023C
:1000B00069026D0273029B029B029B027E02820216
:1000C00086028C0290029B02960200000002000948
:1000D0000F0000030401000C0000000000000000FD
:1000E00000000000000000000408020110408040F1
:1000F000102040804080080204018040201002014E
:10010000108010204040040404040403040502028B
:1001100002020403020202020606060606060404A0
:1001200002020204000000002300260029002C0027
:100130002F0000000000250028002B002E003100B9
:1001400000000000240027002A002D0030001201CA
:100150000002EF0201404123368000010102030149
:10016000120100020000004041233680000101021C
:10017000030141726475696E6F204C4C43004172FB
:100180006475696E6F204C656F6E6172646F0004F8
:10019000030904080B000202020100090400000127
:1001A00002020000052400100105240101010424BD
:1001B000020605240600010705810310004009041A
:1001C0000100020A000000070502024000000705C6
:1001D000830240000000560811241FBECFEFDAE072
:1001E000DEBFCDBF11E0A0E0B1E0ECE2F2E102C081
:1001F00005900D92AC32B107D9F721E0ACE2B1E045
:1002000001C01D92AC39B207E1F711E0C8EDD1E0B1
:1002100004C02297FE010E941009C63DD107C9F70C
:100220000E9435030C9414090C94000061E0809145
:1002300002010E949C0260E0809106010E949C02E3
:1002400061E0809100010E949C0260E080910401C5
:100250000C949C02809104010E940B03019781F091
:10026000809104010E940B03892BE9F560E08091E5
:1002700002010E94D50261E0809100010C94D50238
:10028000809106010E940B030197E1F461E08091E7
:1002900002010E94D50264E670E080E090E00E94D6
:1002A000E10160E0809102010E94D50264E670E005
:1002B00080E090E00E94E10160E0809100010E94F6
:1002C000D502DECF809106010E940B03892B41F6F7
:1002D00060E0809102010E94D50261E080910001FE
:1002E0000E94D502EFCF08951F920F920FB60F9282
:1002F00011242F933F938F939F93AF93BF9380913C
:100300002D0190912E01A0912F01B09130013091DB
:100310002C0123E0230F2D3720F40196A11DB11DE0
:1003200005C026E8230F0296A11DB11D20932C01C4
:1003300080932D0190932E01A0932F01B093300153
:100340008091310190913201A0913301B09134013B
:100350000196A11DB11D8093310190933201A093AC
:100360003301B0933401BF91AF919F918F913F9131
:100370002F910F900FBE0F901F9018953FB7F894D4
:100380008091310190913201A0913301B0913401FB
:1003900026B5A89B05C02F3F19F00196A11DB11DE0
:1003A0003FBF6627782F892F9A2F620F711D811DFD
:1003B000911D42E0660F771F881F991F4A95D1F75C
:1003C0000895CF92DF92EF92FF92CF93DF936B016C
:1003D0007C010E94BE01EB01C114D104E104F104CF
:1003E00089F00E9448030E94BE016C1B7D0B683E91
:1003F000734090F381E0C81AD108E108F108C851B0
:10040000DC4FEACFDF91CF91FF90EF90DF90CF905C
:100410000895789484B5826084BD84B5816084BD7C
:1004200085B5826085BD85B5816085BDEEE6F0E06D
:10043000808181608083E1E8F0E0108280818260C9
:100440008083808181608083E0E8F0E0808181604A
:100450008083E1E9F0E08081826080838081816037
:100460008083E0E9F0E0808181608083E1ECF0E06E
:1004700080818460808380818260808380818160CC
:100480008083E3ECF0E0808181608083E0ECF0E049
:10049000808182608083E2ECF0E0808181608083F3
:1004A000EAE7F0E0808184608083808182608083DD
:1004B000808181608083808180688083089590E05E
:1004C000FC013197EF30F105B0F5EA5AFF4F0C947B
:1004D0000E09809180008F7703C0809180008F7D0E
:1004E00080938000089580918000877FF9CF84B544
:1004F0008F7702C084B58F7D84BD08958091900070
:100500008F7707C0809190008F7D03C0809190000D
:10051000877F8093900008958091C0008F7703C0FB
:100520008091C0008F7D8093C00008958091C200AB
:10053000877F8093C2000895CF93DF9390E0FC0102
:10054000E851FF4F2491FC01EA5FFE4F849188231C
:1005500049F190E0880F991FFC01E05CFE4FA591E6
:10056000B4918E5C9E4FFC01C591D4919FB76111EF
:1005700008C0F8948C91209582238C9388818223E3
:100580000AC0623051F4F8948C91322F3095832355
:100590008C938881822B888304C0F8948C91822B61
:1005A0008C939FBFDF91CF9108950F931F93CF93AB
:1005B000DF931F92CDB7DEB7282F30E0F901E65365
:1005C000FF4F8491F901E851FF4F1491F901EA5F5F
:1005D000FE4F04910023C9F0882321F069830E9413
:1005E0005F026981E02FF0E0EE0FFF1FEE5CFE4F2F
:1005F000A591B4919FB7F8948C91611103C01095A7
:10060000812301C0812B8C939FBF0F90DF91CF91ED
:100610001F910F910895CF93DF93282F30E0F901B8
:10062000E653FF4F8491F901E851FF4FD491F9014E
:10063000EA5FFE4FC491CC2391F081110E945F02CA
:10064000EC2FF0E0EE0FFF1FEC5DFE4FA591B49193
:100650002C912D2381E090E021F480E002C080E025
:1006600090E0DF91CF91089508950E9409020E94C1
:10067000340385E391E00E9462070E941601C0E006
:10068000D0E00E942A012097E1F30E940000F9CFF8
:100690000895615030F02091F100FC012083019613
:1006A000F8CF289884E680933E010895409139015F
:1006B00050913A0120913701309138014217530788
:1006C000B4F49091E8009570E1F39091E80092FD08
:1006D00019C08093F1008091390190913A010196FF
:1006E0008F739927892B19F48EEF8093E8008091FE
:1006F000390190913A01019690933A018093390122
:1007000081E0089580E00895CF92DF92EF92FF920A
:100710000F931F93CF93DF931F92CDB7DEB7082FB0
:10072000162FF42E862F880F8E5F99830E94560312
:1007300083E00E945603E02EC02E9981D92E8C2D85
:100740008E19811798F4F601F7FE02C0849101C05A
:1007500080810E945603082F80E00E945603802368
:10076000FFEFCF1ADF0A8111EACF01C081E00F90BD
:10077000DF91CF911F910F91FF90EF90DF90CF907D
:1007800008958091D70081608093D70080EA80939C
:10079000D80089B5806189BD89B5826089BD09B4F9
:1007A00000FEFDCF61E070E080E090E00E94E1019A
:1007B0008091D8008F7C80618093D8008091E00088
:1007C000807F8093E0000895CF93DF931F92CDB791
:1007D000DEB71982CE0101960E94D2070E94FA0864
:1007E000BE016F5F7F4F0E94730889810F90DF9178
:1007F000CF9108952FB7FC012083F8946770609320
:10080000E9000895CF93DF931F92CDB7DEB7682F2D
:10081000CE0101960E94FA038091F20099819FBF58
:100820000F90DF91CF910895FF920F931F93CF9375
:10083000DF9300D0CDB7DEB7F62E8A0190913D014F
:10084000992311F057FF03C08FEF9FEF2BC0682F44
:10085000CE0101967A830E94FA038091F20090E023
:10086000A8017A81801791070CF4AC01EF2DF72FC6
:10087000F40E84E6FE1639F0289880933E0190919C
:10088000F1009193F7CF4115510521F08091F200CD
:10089000882321F089818FBFCA0104C08BE6809331
:1008A000E800F8CF0F900F90DF91CF911F910F913B
:1008B000FF900895CF93DF931F92CDB7DEB741E04D
:1008C00050E0BE016F5F7F4F0E941404019719F43E
:1008D000898190E002C08FEF9FEF0F90DF91CF9161
:1008E0000895CF93DF931F92CDB7DEB7682FCE0167
:1008F00001960E94FA039091E800892F807295FF7B
:1009000004C09091F20080E4891B99819FBF0F90F1
:10091000DF91CF9108956F927F928F929F92AF92C5
:10092000BF92CF92DF92EF92FF920F931F93CF93DC
:10093000DF931F92CDB7DEB7782E7B01C42EB52E84
:1009400080913D01882369F0042F152F8AEFD82E5E
:10095000872D8072982E9AE3A92E872D8074882E79
:1009600011C08FEF9FEF57C0872D0E947104682E32
:1009700081110CC0DA94A9F361E070E080E090E0AE
:100980000E94E1010115110579F73BC0282F30E0E5
:10099000021713070CF4602E672DCE0101960E94FA
:1009A000FA038091E80085FF29C0262D30E0021B64
:1009B000130B992039F06A948FEF6816B1F01092FA
:1009C000F100F9CFF701862D77FE07C0815058F06E
:1009D00094919093F1003196F9CF815020F091914C
:1009E0009093F100FACFE20EF31E8091E80085FFAC
:1009F0000FC00115110511F481100AC089818FBF44
:100A0000C1CF5D9884E680933F018C2D9B2D03C060
:100A1000A092E800F3CF0F90DF91CF911F910F913B
:100A2000FF90EF90DF90CF90BF90AF909F908F900E
:100A30007F906F9008951092E90010923A01109201
:100A4000390190933801809337010895CF92DF9256
:100A5000FF920F931F93CF93DF9300D0CDB7DEB7F4
:100A6000F82E8A016B0101151105B1F0F601F7FEB0
:100A700002C0849101C0808149835A830E94560339
:100A800001501109FFEFCF1ADF0A49815A81811104
:100A9000EACF8FEF9FEF01C0CA010F900F90DF9157
:100AA000CF911F910F91FF90DF90CF9008951F93EA
:100AB000CF93DF931F92CDB7DEB7162F2091E800BA
:100AC00022FFFCCF612F79830E9449038BEF809333
:100AD000E800812F7981972F0F90DF91CF911F919F
:100AE00008951F920F920FB60F921124DF92EF928A
:100AF000FF920F931F932F933F934F935F936F93A7
:100B00007F938F939F93AF93BF93EF93FF93CF9375
:100B1000DF93CDB7DEB76C97DEBFCDBF1092E90093
:100B20008091E80083FF23C168E0CE0145960E94D2
:100B3000490382EF8093E8003D8937FF05C080912B
:100B4000E80080FFFCCF03C08EEF8093E800832F86
:100B5000807609F0F0C02E894F89D88C21110CC005
:100B6000303829F480913C018093F10002C010924A
:100B7000F1001092F100F4C0842F90E09D29213003
:100B800049F43111EDC0019709F0EAC080913C01B0
:100B90008D7F0AC0233059F43111E2C0019709F06A
:100BA000DFC080913C01826080933C01D9C0253038
:100BB00041F48091E80080FFFCCF40684093E3005F
:100BC000CFC0263009F08DC0EB8CFC8C22E0D21215
:100BD0002CC080E090E00E941B050E94E40399E095
:100BE0008E010F5F1F4FF801292F11922A95E9F707
:100BF0009983DA8291E09E8390EA98879AEF9987A9
:100C00002091390130913A01275F3F4F3C832B837C
:100C10008D83C7010E941B0549E050E0B80180E0C8
:100C20000E9426050E94E4039BC0C7010E941B0589
:100C30000E94FA08BE016B5E7F4F0E949C080097DD
:100C400019F00CF08DC090C081E0D8120EC08B8DD1
:100C50009C8D089719F481E08093360180913601CC
:100C600081112FC060E671E031C0E3E0DE127CC08C
:100C70008F89882349F1823029F440E860E18EE7CA
:100C800091E01CC0813029F440E86BE082E791E0FC
:100C900015C0833009F068C00E94FA088E010F5F0A
:100CA0001F4FB8010E94BB08F80101900020E9F72E
:100CB0003197E01BF10B40E06E2FC8010E948403C6
:100CC0004DC06EE471E002C06FE871E0611571051E
:100CD00009F44AC0FB01449150E080E80E942605D7
:100CE0003FC0273009F440C0283021F481E08093D0
:100CF000F10036C02930A1F53370B1F5E9E0F1E03B
:100D000081E021E036E39081992361F08093E9004E
:100D10002093EB0091919093EC003093ED008F5F66
:100D2000873089F78EE78093EA001092EA008F8976
:100D300080933D0115C08B8D9C8D0E941B05898D74
:100D4000811105C0CE0145960E94DD0707C00E94B3
:100D5000FA08BE016B5E7F4F0E94DA08882321F0FB
:100D60008EEF8093E80003C081E28093EB006C96E5
:100D70000FB6F894DEBF0FBECDBFDF91CF91FF91CC
:100D8000EF91BF91AF919F918F917F916F915F9103
:100D90004F913F912F911F910F91FF90EF90DF9016
:100DA0000F900FBE0F901F9018958093E9008091CF
:100DB000F200882319F08AE38093E80008951F92D7
:100DC0000F920FB60F9211242F933F934F935F937F
:100DD0006F937F938F939F93AF93BF93CF93EF9333
:100DE000FF93C091E1008091E100837F8093E10057
:100DF0008093E100C3FF0FC01092E90081E080936F
:100E0000EB001092EC0082E38093ED0010923D0124
:100E100088E08093F000C2FF19C083E00E94D506ED
:100E200080913F01882339F080913F018150809368
:100E30003F01882389F180913E01882339F0809118
:100E40003E01815080933E01882341F1C4FF10C0D0
:100E50008091E2008E7E81608093E2008091E100CB
:100E60008F7E8093E10080913B018E7E806111C076
:100E7000C0FF16C08091E2008E7E80618093E20008
:100E80008091E1008E7E8093E10080913B018E7E17
:100E9000816080933B0104C05D9ACDCF289AD6CF64
:100EA000FF91EF91CF91BF91AF919F918F917F91E2
:100EB0006F915F914F913F912F910F900FBE0F90C7
:100EC0001F90189510923D0110923C0110923B0129
:100ED0000E94C103E1EEF0E080818E7E80838DE090
:100EE0008093E200559A209A0895CF93DF931F9242
:100EF000CDB7DEB76983DC01ED91FC910280F3810F
:100F0000E02D41E050E0BE016F5F7F4F09950F90EB
:100F1000DF91CF910895CF93DF93EC018C859D8570
:100F200097FF05C082E00E945A049D878C878C85BC
:100F30009D85DF91CF91089583E00C94D506FC0147
:100F40008485958597FD06C082E00E94020490E0AA
:100F50000196089582E00E94020490E00895FC0149
:100F60008485958597FD05C02FEF3FEF3587248752
:100F7000089582E00C945A04CF93DF93EC018091A2
:100F80001A01882331F083E00E948B041816190699
:100F900034F081E090E09B838A8380E090E0DF91F1
:100FA000CF910895FC0120812E5F208342E450E020
:100FB00063E971E080E80C942605FC0121818081C1
:100FC000813A59F4213209F05CC047E050E063E116
:100FD00071E080E00E94260567C0813209F051C0AF
:100FE000233289F4838190E0982F88273281832BE4
:100FF000A0E0B0E080930F0190931001A093110145
:10100000B09312010FC0203239F467E070E083E141
:1010100091E00E9457050AC0223221F48281809318
:101020001A0104C02D7F203209F03EC080911301C7
:1010300090911401A0911501B0911601803B94404C
:10104000A105B10501F580911A0180FD1CC08091B8
:101050000008909101089093FF0A8093FE0A87E7A9
:1010600097E790930108809300082BE088E190E0D7
:101070000FB6F894A895809360000FBE209360008F
:1010800013C080E0089588E10FB6F8948093600063
:10109000109260000FBEA8958091FE0A9091FF0A01
:1010A000909301088093000881E008951092430115
:1010B0001092420188EE93E0A0E0B0E080934401FA
:1010C00090934501A0934601B09347018FE191E0D1
:1010D00090934101809340018FEF9FEF90934D01DA
:1010E00080934C010895EF92FF920F931F93CF933B
:1010F000DF937B01FC01C281D38100E010E02097E7
:1011000081F0E881F9810280F381E02DB701CE0101
:10111000099597FD08C0080F191F0884D985C02DAF
:10112000EECFC80102C08FEF9FEFDF91CF911F91EB
:101130000F91FF90EF9008950F931F93CF93DF933C
:101140008B01FC01C281D381209771F0E881F98184
:101150000480F581E02DB801CE010995009731F4A6
:101160000884D985C02DF0CF80E090E0DF91CF9149
:101170001F910F9108950F931F93CF93DF938B01CE
:10118000FC01C281D381209771F0E881F98106804A
:10119000F781E02DB801CE010995080F111D0884D3
:1011A000D985C02DF0CFF8011082DF91CF911F912A
:1011B0000F9108950F931F93CF93DF938B01FC0141
:1011C000C281D381209771F0E881F9810190F0818B
:1011D000E02DB801CE010995811106C00884D9859A
:1011E000C02DF0CF80E001C081E0DF91CF911F9151
:1011F0000F9108958091940181110DC082E0809338
:10120000900184E0809391011092930110929201D9
:1012100081E08093940180E991E00895EE0FFF1F33
:0C1220000590F491E02D0994F894FFCFA4
:10122C0004000D000900080000C18081000000FFCF
:10123C00FFFFFF00E100000000000000000000754F
:0C124C0007BC079F07AF078B079C07003B
:00000001FF
